:020000040000FA
:0600000091EF11F0120067
:020006001200E6
:08000800E1CF1DF7E2CF1BF769
:10001000E9CF19F7EACF17F79EAA36D0F00E0E01F6
:100020001317AECF0BF7580E07010B5D17E1010E4A
:100030000301636F646BE66A010EE66EE66A670EA3
:10004000E66E030EE66E23EC10F0146E050EE15E14
:10005000145003015B6B5C6BFF0045D0670E03011E
:100060005B250701236F030E03015C210701246F49
:1000700023C7E9FF24C7EAFF0BC7EFFF03015B2B90
:10008000000E5C239E9A2FD0A4AA1BD0F00E0E0166
:1000900012177ACF0EF7BD0E03015D250701276FFA
:1000A000050E03015E210701286F27C7E9FF28C756
:1000B000EAFF0EC7EFFF03015D2B000E5E23A49A3B
:1000C00012D0F2A410D0060ED76E300ED66EF29477
:1000D0000701072B000E07010823000E0701092363
:1000E000000E07010A2317C7EAFF19C7E9FF1DC75A
:1000F000E1FF1BC7E2FF11001200050EE66E37ECB0
:1001000011F0E5521200010E9F109F6EE66AC70EB5
:10011000E66EB1EC10F0E552E5527F0ECF6ECE6880
:100120001200D9CFE6FFE1CFD9FF0A0EE126E5DFC5
:10013000FB0EDBCF14F0FC0EDBCF15F0100E15021A
:10014000F3CF15F0040E1402F3501526100E14020E
:10015000F3CF14F0F4501526040E14C0DBFF050E87
:1001600015C0DBFF060EDB6A070EDB6A0101030523
:1001700036E111C7E6FF12C7E6FF060EE66E010E76
:10018000E66EFD0EDBCFE6FFFE0EDBCFE6FFF8EC02
:100190000FF0146E060EE15E1450010EE66EE66A74
:1001A000E66AFD0EDB50070111250001146EFE0EFC
:1001B000DB50070112210001156E14C0E6FF15C0C7
:1001C000E6FF23EC10F0166E050EE15E16500101FD
:1001D000036B11C7F3FF12C7F4FF34D032D0080EFF
:1001E000D6CFDBFF090ED7CFDBFF080EDBCF14F035
:1001F000090EDBCF15F0000E14C0DBFF010E15C099
:10020000DBFF020EDB6A030EDB6A040EDBCF14F0A9
:10021000050EDBCF15F0060EDBCF16F0070EDBCF99
:1002200017F0D9CFE9FFDACFEAFFEE50145CEE50B9
:100230001558EE501658EE50175803E2F368F4685C
:1002400001D094D70A0EE15C02E2E16AE552E16E68
:10025000E552E7CFD9FF1200D9CFE6FFE1CFD9FFB2
:100260000E0EE1260C0ED6CFDBFF0D0ED7CFDBFF37
:100270000C0EDBCF14F00D0EDBCF15F0000E14C00A
:10028000DBFF010E15C0DBFF020EDB6A030EDB6A2B
:10029000D9CFE9FFDACFEAFFEECF06F0EECF07F0D5
:1002A000EECF08F0EFCF09F0E80E0B6E030E0C6EE8
:1002B0000D6A0E6ADBEC10F0080E06C0DBFF090EBB
:1002C00007C0DBFF0A0E08C0DBFF0B0E09C0DBFF17
:1002D000080EDBCF18F0090EDBCF19F00A0EDBCFCA
:1002E0001AF00B0EDBCF1BF0E80E0B6E030E0C6E3C
:1002F0000D6A0E6A18C006F019C007F01AC008F09F
:100300001BC009F079EC10F002C018F003C019F01E
:1003100004C01AF005C01BF0D9CFE9FFDACFEAFF1D
:100320001850EE5C146E1950EE58156E1A50EE58B7
:10033000166E1B50EE58176E2FC71CF030C71DF0FD
:100340001E6A1F6A1DAE02D01E681F681C5014264C
:100350001D5015221E5016221F501722040E14C0C5
:10036000DBFF050E15C0DBFF060E16C0DBFF070E18
:1003700017C0DBFF040EDBCFE6FF050EDBCFE6FF89
:100380001BEC11F0E552E552080EDBCF14F0090E1C
:10039000DBCF15F00A0EDBCF16F00B0EDBCF17F01C
:1003A00014C006F015C007F016C008F017C009F019
:1003B00000D00E0EE15C02E2E16AE552E16EE55228
:1003C000E7CFD9FF1200D9CFE6FFE1CFD9FF0E0E5C
:1003D000E1260C0ECECFDBFF0D0ECFCFDBFF0C0ED8
:1003E000DBCF14F00D0EDBCF15F0000E14C0DBFFD9
:1003F000010E15C0DBFF020EDB6A030EDB6AD9CFEC
:10040000E9FFDACFEAFFEECF06F0EECF07F0EECF4E
:1004100008F0EFCF09F0FA0E0B6E0C6A0D6A0E6A47
:10042000DBEC10F0080E06C0DBFF090E07C0DBFF97
:100430000A0E08C0DBFF0B0E09C0DBFF080EDBCF86
:1004400018F0090EDBCF19F00A0EDBCF1AF00B0EF5
:10045000DBCF1BF0FA0E0B6E0C6A0D6A0E6A18C029
:1004600006F019C007F01AC008F01BC009F079ECBB
:1004700010F002C018F003C019F004C01AF005C053
:100480001BF0D9CFE9FFDACFEAFF1850EE5C146E0B
:100490001950EE58156E1A50EE58166E1B50EE5845
:1004A000176E360E1426000E1522000E1622000EB0
:1004B0001722040E14C0DBFF050E15C0DBFF060E6D
:1004C00016C0DBFF070E17C0DBFF040EDBCFE6FF15
:1004D000050EDBCFE6FFFFEC10F0E552E552080E0B
:1004E000DBCF14F0090EDBCF15F00A0EDBCF16F0D0
:1004F0000B0EDBCF17F014C006F015C007F016C0C6
:1005000008F017C009F000D00E0EE15C02E2E16ACB
:10051000E552E16EE552E7CFD9FF1200D9CFE6FFF1
:10052000E1CFD9FFD950FD0FE96EFF0EDA20EA6E58
:10053000080EEE1801E1ED5003E19B6A620ED36EE6
:10054000D950FD0FE96EFF0EDA20EA6E010EEE18AB
:1005500001E1ED5003E19B6A320ED36ED950FD0FDD
:10056000E96EFF0EDA20EA6E280EEE1801E1ED507A
:1005700002E19B6AD36AE552E7CFD9FF1200D9CFD7
:10058000E6FFE1CFD9FFAC6AAB6AAB88AC849E983A
:100590009D8A9D98FD0EDBCF14F0FE0EDBCF15F08B
:1005A000166A145004E1960E151801E1165002E186
:1005B000340EAF6EFD0EDBCF14F0FE0EDBCF15F068
:1005C000166A145004E1E10E151801E1165002E11B
:1005D000220EAF6E080EA76EAC84949C948ED08EC3
:1005E0009F8AF28CF28EAC8AAB8EE552E7CFD9FFB0
:1005F0001200400EE66EE66A2C0EE66E3DEC10F040
:10060000E552E552E5521200D9CFE6FFE1CFD9FF1E
:10061000070EE126040EDB68FB0EDBCF08F0FC0EB4
:10062000DBCF09F0050E08C0DBFF060E09C0DBFFBB
:10063000D950FB0F146EFF0EDA20156E020E14C097
:10064000DBFF030E15C0DBFFE66A010EE66EE66A0D
:10065000070EE66E060EE66E23EC10F0146E050E25
:10066000E15E1450010EE66EE66AD950040FE66EA4
:10067000000EDA20E66E070EE66E060EE66EF8EC69
:100680000FF0146E060EE15E1450070EDE6E060EBD
:10069000DD6EACA2FED7DECFE9FFDDCFEAFFEF5083
:1006A000E66E6AEC11F0E5520A0EE66EE66AE66A5C
:1006B000E66A97D8E552E552E552E552010EE66E3C
:1006C000E66AD950050FE66E000EDA20E66E070ED8
:1006D000E66E060EE66EF8EC0FF0146E060EE15EA6
:1006E0001450ACA2FED7070EDE6E060EDD6EDECF16
:1006F000E9FFDDCFEAFFEF50E66E6AEC11F0E5525C
:10070000020EE66EE66AE66AE66A6BD8E552E552E4
:10071000E552E552DF2A010E01E3DB2AFB0EDBCFB7
:10072000E6FFFC0EDBCFE6FFFD0EDBCFE6FFFE0EA5
:10073000DBCFE6FF080EE66E060EE66EF8EC0FF075
:10074000146E060EE15E1450FB0EDB2AFC0E01E374
:10075000DB2A050EDB6A060EDB6A050EDBCF14F022
:10076000060EDBCF15F0FB0EDBCF16F0FC0EDBCF59
:1007700017F015501718E8AE02D0173404D01650F1
:10078000145C1750155815E2ACA2FED7DECFE9FF76
:10079000DDCFEAFFEF50E66E6AEC11F0E552DF2A9A
:1007A000010E01E3DB2A050EDB2A060E01E3DB2A3C
:1007B000D4D7070EE15C02E2E16AE552E16EE55250
:1007C000E7CFD9FF12009EAA02D0010E02D0000E80
:1007D00000D01200BAB202D0010E02D0000E00D03A
:1007E0001200D9CFE6FFE1CFD9FF040EE126DE6A81
:1007F000DE6ADE6ADD6ADD52DD52FB0EDBCF14F00D
:10080000FC0EDBCF15F0FD0EDBCF16F0FE0EDBCFBE
:1008100017F0D9CFE9FFDACFEAFF1450EE5C15509C
:10082000EE581650EE581750EE580FE2140EE66EC2
:100830009FEC11F0E552D9CFE9FFDACFEAFFEE2ABB
:10084000000EEE22EE22EE22D8D7040EE15C02E288
:10085000E16AE552E16EE552E7CFD9FF1200D9CF48
:10086000E6FFE1CFD9FFFD0EDBCF29F7FE0EDBCF90
:100870002AF7FB0EDBCF2DF7FC0EDBCF2EF707019F
:100880002B6B2C6B07012C5107012E19E8AE02D0FF
:100890002E3507D02D5107012B5D07012E51070181
:1008A0002C5916E297DF000901E0FCD729C7E9FFC0
:1008B0002AC7EAFFEF50E66E53EC11F0E55207014C
:1008C000292B000E2A2307012B2B000E2C23DAD70D
:1008D000E552E7CFD9FF1200FE0E9214926E010E80
:1008E0008910896E010E8010806E1200FE0E921427
:1008F000926EFE0E8914896EFE0E8014806E1200B8
:10090000010E9210926E010E8014010E8014010EE1
:10091000801400D01200FD0E9214926E020E891007
:10092000896E020E8010806E1200FD0E9214926E7F
:10093000FD0E8914896EFD0E8014806E1200020E69
:100940009210926E020E8014020E8014020E801419
:1009500000D01200FB0E9214926E040E8910896E64
:10096000040E8010806E1200FB0E9214926EFB0E2D
:100970008914896EFB0E8014806E1200040E921092
:10098000926E040E8014040E8014040E801400D0A5
:100990001200F70E9214926E080E8910896E080EDE
:1009A0008010806E1200F70E9214926EF70E89146A
:1009B000896EF70E8014806E1200080E9210926EEF
:1009C000080E8014080E8014080E801400D0120047
:1009D000EF0E9214926E100E8910896E100E801018
:1009E000806E1200EF0E9214926EEF0E8914896ED3
:1009F000EF0E8014806E1200100E9210926E100E88
:100A00008014100E8014100E801400D01200DF0E1F
:100A10009214926E200E8010806E1200DF0E9214DF
:100A2000926EDF0E8014806E1200200E9210926E75
:100A3000200E8014200E8014200E801400D012008E
:100A40007F0E9214926E800E8010806E12007F0EC8
:100A50009214926E7F0E8014806E1200800E92109F
:100A6000926E800E8014800E8014800E801400D050
:100A70001200BF0E9214926E400E8010806E120013
:100A8000BF0E9214926EBF0E8014806E1200400E44
:100A90009210926E400E8014400E8014400E80140E
:100AA00000D01200FE0E9414946E010E8210826E1D
:100AB0001200FE0E9414946EFE0E8214826E1200CA
:100AC000010E9410946E010E8214010E8214010E18
:100AD000821400D01200FD0E9414946E020E821047
:100AE000826E1200FD0E9414946EFD0E8214826EBE
:100AF0001200020E9410946E020E8214020E8214E2
:100B0000020E821400D01200FB0E9414946E040E98
:100B10008210826E1200FB0E9414946EFB0E8214EF
:100B2000826E1200040E9410946E040E8214040E51
:100B30008214040E821400D01200F70E9414946EE6
:100B4000080E8210826E1200F70E9414946EF70E47
:100B50008214826E1200080E9410946E080E821495
:100B6000080E8214080E821400D01200EF0E9414A6
:100B7000946E100E8210826E1200EF0E9414946E1A
:100B8000EF0E8214826E1200100E9410946E100EEE
:100B90008214100E8214100E821400D01200DF0E88
:100BA0009414946E200E8210826E1200DF0E941444
:100BB000946EDF0E8214826E1200200E9410946EDA
:100BC000200E8214200E8214200E821400D01200F7
:100BD000FE0E9314936E010E8110816E1200FE0EB4
:100BE0009314936EFE0E8114816E1200010E931009
:100BF000936E010E8114010E8114010E811400D038
:100C00001200FD0E9314936E020E8110816E12007D
:100C1000FD0E9314936EFD0E8114816E1200020E70
:100C20009310936E020E8114020E8114020E811431
:100C300000D01200FB0E9314936E040E8110816E8F
:100C40001200FB0E9314936EFB0E8114816E120042
:100C5000040E9310936E040E8114040E8114040E7E
:100C6000811400D01200F70E9314936E080E8110B9
:100C7000816E1200F70E9314936EF70E8114816E3D
:100C80001200080E9310936E080E8114080E811442
:100C9000080E811400D01200EF0E9314936E100E04
:100CA0008110816E1200EF0E9314936EEF0E81147B
:100CB000816E1200100E9310936E100E8114100EA0
:100CC0008114100E811400D01200DF0E9314936E65
:100CD000200E8110816E1200DF0E9314936EDF0ED2
:100CE0008114816E1200200E9310936E200E8114D9
:100CF000200E8114200E811400D01200BF0E931418
:100D0000936E400E8110816E1200BF0E9314936E8D
:100D1000BF0E8114816E1200400E9310936E400E30
:100D20008114400E8114400E811400D012007F0EF9
:100D30009314936E800E8110816E12007F0E9314B7
:100D4000936E7F0E8114816E1200800E9310936E4D
:100D5000800E8114800E8114800E811400D0120048
:100D6000D9CFE6FFE1CFD9FFFD0EDBCF08F0FE0EB5
:100D7000DBCF09F01C0E081801E1095001E198D001
:100D80001B0E081801E1095001E190D01A0E081855
:100D900001E1095001E188D0190E081801E109505C
:100DA00001E180D0180E081801E1095001E178D066
:100DB000170E081801E1095071E0160E081801E13C
:100DC00009506AE0150E081801E1095063E0100EA1
:100DD000081801E109505CE00F0E081801E1095004
:100DE00055E00E0E081801E109504EE00D0E0818EE
:100DF00001E1095047E00C0E081801E1095040E0FC
:100E00000B0E081801E1095039E00A0E081801E13B
:100E1000095032E0090E081801E109502BE0070ED5
:100E2000081801E1095024E0060E081801E10950F4
:100E30001DE0050E081801E1095016E0040E08181F
:100E400001E109500FE0030E081801E1095008E024
:100E5000020E081801E1095001E02CD03DDD2AD036
:100E60005ADD28D077DD26D094DD24D0B1DD22D024
:100E7000CEDD20D0E5DD1ED0FCDD1CD013DE1AD087
:100E80002ADE18D041DE16D058DE14D06FDE12D024
:100E900086DE10D09DDE0ED0B4DE0CD0CBDE0AD0C4
:100EA000E2DE08D0F9DE06D010DF04D027DF02D062
:100EB0003EDF00D0E552E7CFD9FF1200D9CFE6FFE1
:100EC000E1CFD9FFFD0EDBCF08F0FE0EDBCF09F03E
:100ED0001C0E081801E1095001E198D01B0E0818FA
:100EE00001E1095001E190D01A0E081801E1095002
:100EF00001E188D0190E081801E1095001E180D004
:100F0000180E081801E1095001E178D0170E0818F1
:100F100001E1095071E0160E081801E109506AE07C
:100F2000150E081801E1095063E0100E081801E1E0
:100F300009505CE00F0E081801E1095055E00E0E53
:100F4000081801E109504EE00D0E081801E10950A2
:100F500047E00C0E081801E1095040E00B0E08189C
:100F600001E1095039E00A0E081801E1095032E0A8
:100F7000090E081801E109502BE0070E081801E1DD
:100F8000095024E0060E081801E109501DE0050E85
:100F9000081801E1095016E0040E081801E1095093
:100FA0000FE0030E081801E1095008E0020E0818CE
:100FB00001E1095001E02CD099DC2AD0B6DC28D020
:100FC000D3DC26D0F0DC24D00DDD22D027DD20D0EC
:100FD0003EDD1ED055DD1CD06CDD1AD083DD18D06F
:100FE0009ADD16D0B1DD14D0C8DD12D0DFDD10D00F
:100FF000F6DD0ED00DDE0CD024DE0AD03BDE08D0AC
:1010000052DE06D069DE04D080DE02D097DE00D04A
:10101000E552E7CFD9FF1200D9CFE6FFE1CFD9FFE4
:10102000FD0EDBCF08F0FE0EDBCF09F01C0E08181A
:1010300001E1095001E136D11B0E081801E1095008
:1010400001E127D11A0E081801E1095001E118D178
:10105000190E081801E1095001E109D1180E08180C
:1010600001E1095001E1FAD0170E081801E1095019
:1010700001E1EBD0160E081801E1095001E1DCD0C6
:10108000150E081801E1095001E1CDD0100E081825
:1010900001E1095001E1BED00F0E081801E109502D
:1010A00001E1AFD00E0E081801E1095001E1A0D016
:1010B0000D0E081801E1095001E191D00C0E08183D
:1010C00001E1095001E182D00B0E081801E109503D
:1010D00074E00A0E081801E1095066E0090E0818CC
:1010E00001E1095058E0070E081801E109504AE0F3
:1010F000060E081801E109503CE0050E081801E150
:1011000009502EE0040E081801E109501FE0030EFB
:10111000081801E1095010E0020E081801E1095019
:1011200001E0C9D080EC04F0146E156A14C0F3FF1E
:1011300015C0F4FFC0D0BFD09FEC04F0146E156A48
:1011400014C0F3FF15C0F4FFB6D0B5D0BEEC04F068
:10115000146E156A14C0F3FF15C0F4FFACD0ABD009
:101160002CDC146E156A14C0F3FF15C0F4FFA3D075
:10117000A2D042DC146E156A14C0F3FF15C0F4FF50
:101180009AD099D052DC146E156A14C0F3FF15C0C2
:10119000F4FF91D090D062DC146E156A14C0F3FF96
:1011A00015C0F4FF88D087D072DC146E156A14C0A5
:1011B000F3FF15C0F4FF7FD07ED082DC146E156A79
:1011C00014C0F3FF15C0F4FF76D075D092DC146E16
:1011D000156A14C0F3FF15C0F4FF6DD06CD0A2DC0B
:1011E000146E156A14C0F3FF15C0F4FF64D063D009
:1011F000B2DC146E156A14C0F3FF15C0F4FF5BD0A7
:101200005AD0C2DC146E156A14C0F3FF15C0F4FF87
:1012100052D051D0D2DC146E156A14C0F3FF15C041
:10122000F4FF49D048D0E2DC146E156A14C0F3FF15
:1012300015C0F4FF40D03FD0F2DC146E156A14C024
:10124000F3FF15C0F4FF37D036D002DD146E156AF7
:1012500014C0F3FF15C0F4FF2ED02DD012DD146E94
:10126000156A14C0F3FF15C0F4FF25D024D022DD89
:10127000146E156A14C0F3FF15C0F4FF1CD01BD008
:1012800032DD146E156A14C0F3FF15C0F4FF13D0DD
:1012900012D042DD146E156A14C0F3FF15C0F4FFBE
:1012A0000AD009D052DD146E156A14C0F3FF15C0C0
:1012B000F4FF01D000D0E552E7CFD9FF1200D9CF1B
:1012C000E6FFE1CFD9FFFD0EDBCF16F0FE0EDBCF40
:1012D00017F00001800E17140BE0FD0EDBCF14F0A9
:1012E000FE0EDBCF15F0146C151E000E152206D075
:1012F000FD0EDBCF14F0FE0EDBCF15F014C0F3FFB4
:1013000015C0F4FF00D0E552E7CFD9FF1200926A72
:101310000F015D6B806A080EE66EE66A8EEC02F0E5
:10132000E552E55295EC04F028DCE66A960EE66E8E
:10133000BFEC02F0E552E55210CEE6FF11CEE6FF1B
:10134000F1D9E552E55203015B6B5C6B03015F6B06
:10135000606B0301616B626B09014D6B4E6B0301A6
:10136000656B666BB6EC05F0E80EE66E030EE66E96
:10137000E66AE66AF1EC03F0E552E552E552E55221
:10138000BDEC05F0310EE66E070EE66E5BD8E55259
:10139000E552F3CF35F8F4CF36F80701310E256F5B
:1013A000070E266F0801000ED8803555000E365501
:1013B00047E20801336B346B080135510801335D96
:1013C00008013651080134592AE20301010E63195C
:1013D00001E1645114E10301636B646BB6EC05F049
:1013E000F40EE66E010EE66EE66AE66AF1EC03F0D4
:1013F000E552E552E552E552BDEC05F010D025C7A7
:10140000E6FF26C7E6FF67D8E552E5520701252B20
:10141000000E26230801332B000E3423CDD70901FB
:101420004D6B4E6BE66A010EE66EE66A310EE66EB5
:10143000070EE66E23EC10F0146E050EE15E1450FC
:10144000A1D71200D9CFE6FFE1CFD9FF040EE126E4
:1014500009014D514E1132E10301000ED8805B5558
:10146000000E5C552BE25BC34DF95CC34EF9D950BD
:10147000020FE96EDACFEAFF670EEE6E030EED6E35
:101480004DC9E6FF4EC9E6FF020EDBCFE6FF030EB5
:10149000DBCFE6FFFD0EDBCFE6FFFE0EDBCFE6FF88
:1014A000F8EC0FF0146E060EE15E145003015B6B56
:1014B0005C6B4DC9F3FF4EC9F4FF03D0F36AF46AC5
:1014C00000D0040EE15C02E2E16AE552E16EE55211
:1014D000E7CFD9FF1200D9CFE6FFE1CFD9FFFD0E4C
:1014E000DBCFE9FFFE0EDBCFEAFFEF502E083BE13A
:1014F0008BEC04F0B6EC05F0B6EC05F045C814F042
:1015000046C815F0166A176A15AE02D01668176835
:1015100014C0E6FF15C0E6FF16C0E6FF17C0E6FFE1
:10152000F1EC03F0E552E552E552E55295EC04F09A
:10153000BDEC05F045C814F046C815F0166A176AE8
:1015400015AE02D01668176814C0E6FF15C0E6FF96
:1015500016C0E6FF17C0E6FFF1EC03F0E552E552D6
:10156000E552E552DBD0FD0EDBCFE9FFFE0EDBCF0F
:10157000EAFFEF502D0839E18BEC04F0B6EC05F0F2
:1015800047C814F048C815F0166A176A15AE02D09D
:101590001668176814C0E6FF15C0E6FF16C0E6FF20
:1015A00017C0E6FFF1EC03F0E552E552E552E552D3
:1015B00095EC04F0BDEC05F045C814F046C815F0F4
:1015C000166A176A15AE02D01668176814C0E6FFCF
:1015D00015C0E6FF16C0E6FF17C0E6FFF1EC03F00A
:1015E000E552E552E552E55299D0FD0EDBCFE9FF19
:1015F000FE0EDBCFEAFFEF50200819E149C814F0D6
:101600004AC815F0166A176A15AE02D01668176830
:1016100014C0E6FF15C0E6FF16C0E6FF17C0E6FFE0
:10162000F1EC03F0E552E552E552E55277D0FD0EBC
:10163000DBCFE9FFFE0EDBCFEAFFEF50570819E1E1
:101640004BC814F04CC815F0166A176A15AE02D0D4
:101650001668176814C0E6FF15C0E6FF16C0E6FF5F
:1016600017C0E6FFF1EC03F0E552E552E552E55212
:1016700055D0FD0EDBCFE9FFFE0EDBCFEAFFEF50CA
:1016800055080CE10E01102B000E112310CEE6FFC1
:1016900011CEE6FF47D8E552E55240D0FD0EDBCF34
:1016A000E9FFFE0EDBCFEAFFEF5044081AE10E011E
:1016B0001007000E115B010E0E0111AF02D0D89081
:1016C00003D0105D000E115904E2010E0E01106FDF
:1016D000116B10CEE6FF11CEE6FF24D8E552E5529D
:1016E0001DD0FD0EDBCFE9FFFE0EDBCFEAFFEF5092
:1016F000460814E10E010A510B1105E1010E0E011D
:101700000A6F0B6B03D00E010A6B0B6B10CEE6FF5A
:1017100011CEE6FF07D8E552E55200D0E552E7CFFB
:10172000D9FF1200D9CFE6FFE1CFD9FF9A0E146E90
:10173000990E156E990E166E3F0E176EFD0EDBCFCD
:1017400008F0FE0EDBCF09F05DEC0DF007C018F0DD
:1017500008C019F009C01AF00AC01BF018C00CF03C
:1017600019C00DF01AC00EF01BC00FF014C007F026
:1017700015C008F016C009F017C00AF070EC0DF0A3
:1017800007C03DF808C03EF809C03FF80AC040F85D
:101790000C6A0D6AE00E0E6E400E0F6E3DC807F02B
:1017A0003EC808F03FC809F040C80AF0C3EC0DF08D
:1017B00007C041F808C042F809C043F80AC044F81D
:1017C0000C6A0D6A7A0E0E6E440E0F6E3DC807F05D
:1017D0003EC808F03FC809F040C80AF0C3EC0DF05D
:1017E000F4EC0EF008C045F809C046F8030E086E88
:1017F000096A45C80DF046C80EF0C7EC0EF006C0E9
:1018000047F807C048F847C849F848C84AF8070EDB
:10181000086E096A45C80DF046C80EF0C7EC0EF018
:1018200006C04BF807C04CF80E01010E0A1901E181
:101830000B5101E035D1FD0EDBCF14F0FE0EDBCFF6
:1018400015F0D890155004E6130E145C000E1558D0
:1018500001E326D1146A156A870E166E440E176EC0
:10186000CD0E1C6ECC0E1D6E140E1E6E420E1F6E23
:10187000FD0EDBCF08F0FE0EDBCF09F05DEC0DF0C6
:1018800007C020F008C021F009C022F00AC023F0F0
:1018900020C00CF021C00DF022C00EF023C00FF0CC
:1018A0001CC007F01DC008F01EC009F01FC00AF0E0
:1018B000C3EC0DF007C018F008C019F009C01AF009
:1018C0000AC01BF018C00CF019C00DF01AC00EF0C1
:1018D0001BC00FF014C007F015C008F016C009F0C7
:1018E00017C00AF030EC0EF007C039F808C03AF81B
:1018F00009C03BF80AC03CF8120E086E096AFD0EDA
:10190000DBCF0DF0FE0EDBCF0EF0C7EC0EF006C005
:1019100018F007C019F018C008F019C009F05DEC04
:101920000DF007C014F008C015F009C016F00AC089
:1019300017F014C00CF015C00DF016C00EF017C053
:101940000FF039C807F03AC808F03BC809F03CC8A6
:101950000AF070EC0DF007C039F808C03AF809C079
:101960003BF80AC03CF80C6A0D6A400E0E6E400E41
:101970000F6E39C807F03AC808F03BC809F03CC8F8
:101980000AF0C3EC0DF007C014F008C015F009C050
:1019900016F00AC017F00C6A0D6A980E0E6E410E12
:1019A0000F6E14C007F015C008F016C009F017C07C
:1019B0000AF070EC0DF007C03DF808C03EF809C011
:1019C0003FF80AC040F80C6A0D6AE00E0E6E400E39
:1019D0000F6E39C807F03AC808F03BC809F03CC898
:1019E0000AF0C3EC0DF007C014F008C015F009C0F0
:1019F00016F00AC017F00C6A0D6A980E0E6E410EB2
:101A00000F6E14C007F015C008F016C009F017C01B
:101A10000AF070EC0DF007C041F808C042F809C0A8
:101A200043F80AC044F8420E0801456F466B030EA6
:101A3000086E096A45C80DF046C80EF0C7EC0EF0F6
:101A400006C047F807C048F80C6A0D6A7A0E0E6E99
:101A5000440E0F6E3DC807F03EC808F03FC809F0BD
:101A600040C80AF0C3EC0DF0F4EC0EF008C049F8E1
:101A700009C04AF80C6A0D6A7A0E0E6E440E0F6E9B
:101A800041C807F042C808F043C809F044C80AF04A
:101A9000C3EC0DF0F4EC0EF008C04BF809C04CF8A4
:081AA000E552E7CFD9FF120067
:081AA80001005A2300000A0EA0
:061AB00000000800000028
:0A1AB600019E08D0019E09AE05D084
:101AC000086C091EE86A0922018E09C003F008C0EB
:101AD00002F0136A126A8E0E046E056A3FEF0FF071
:101AE000016A7BEC0FF093EC0FF001B623EF0FF0DF
:101AF00001A205D001BA23EF0FF02AEF0FF001BACF
:101B000036EF0FF001A005D001B823EF0FF036EF4C
:101B10000FF001B82AEF0FF0056A7F0E0A24046E59
:101B2000E86A05220F50045EE86A055A1A0E106E24
:101B30000A6A126A136A026A036A0C50075E0D5041
:101B4000085A0E50095A000E0A5A09E70C50072687
:101B50000D5008220E500922000E0A2201D0128ACE
:101B6000D8900736083609360A36D890123613361A
:101B700002360336102EE1D7095008100710D8A4FA
:101B8000128A3FEF0FF0016A7BEC0FF093EC0FF03D
:101B900001B623EF0FF001A205D001B823EF0FF03B
:101BA0002AEF0FF001AA05D001B023EF0FF02AEFC2
:101BB0000FF001B002D001A802D036EF0FF0056A95
:101BC0000F500A24046EE86A05227E0E045EE86A5D
:101BD000055A126A136A026A036A0E500902F4CFA8
:101BE00003F0F3CF02F00D500902F3501326F45026
:101BF0000222000E03220E500802F3501326F45066
:101C00000222000E03220C500902F3501226F45057
:101C10001322000E022203220D500802F350122656
:101C2000F4501322000E022203220E500702F3503A
:101C30001226F4501322000E022203220C50080236
:101C4000F4501226000E1322022203220D50070226
:101C5000F4501226000E1322022203223FEF0FF04F
:101C60000F7E016A7BEC0FF093EC0FF001B623EFCF
:101C70000FF001A20AD001AA03D001BE23EF0FF09A
:101C800001A42FEF0FF02CEF0FF001AA05D001AC4B
:101C90002FEF0FF02CEF0FF001A00AD001A808D011
:101CA00001BE04D001A402D038EF0FF03CEF0FF0DA
:101CB000126A056A0F500A5C116E10E307C013F038
:101CC00008C002F009C003F00AC010F00CC007F011
:101CD0000DC008F00EC009F0013A09D00CC013F095
:101CE0000DC002F00EC003F00FC010F0116C019E89
:101CF00001BC018E10C004F001B06BEF0FF01A0EA2
:101D000011606BEF0FF0046A0A6A01A408D0076C37
:101D1000081E091E0A1EE86A082209220A2201ACCE
:101D200008D0136C021E031E041EE86A022203225E
:101D30000422066A115207E00A34093208320732D7
:101D40000632112EF9D707501326085002220950E7
:101D500003220A50042206C012F0019E04AE0BD0EA
:101D6000126C131E021E031E041EE86A13220222B6
:101D700003220422018E04A006D0D880033202324E
:101D800013321232102A10C004F03FEF0FF009C0D6
:101D900013F008C012F008500D02F4CF07F0F3CF93
:101DA00006F009500E02F4CF09F0F3CF08F00D024F
:101DB000F3500726F4500822E86A092212500E0256
:101DC000F3500726F4500822E86A09220EAEEDEF20
:101DD0000EF01250085E1350095A13AE000C0D504D
:101DE000085E0E50095A000C016A7BEC0FF001B638
:101DF000FEEF0EF001A20ED001B405D07F0E096EE9
:101E0000FF0E086E1FD0800E096E086A1BD0096A8B
:101E1000086A18D001B0FBD78F0E0A60EDD77E0E8E
:101E20000A64F5D78E0E0A5C05E0D89009320832B4
:101E30000A2AF8D701A406D0086C091EE86A09220C
:101E400009AEE5D712007F0E0A6EFF0E096E086E0E
:101E5000076E12007F0E01BEFF0E0A6E02D07F0ECB
:101E60000A6E800E096E086A076AF3D701AE04D0C5
:101E7000800E0A6E096AF7D70A6A096AF4D7035016
:101E8000021013101210F8E005BEF0D703BE0CD0FC
:101E900004500510EBE0D8901236133602360336A4
:101EA0000406D8A00506F2D70550D4E10428D2E0F4
:101EB00012AE11D07F0E121402E113A00CD0132A1F
:101EC000E86A0222032207E3D88003320232133287
:101ED000042A0428BFE00450C9E013C007F002C080
:101EE00008F00334096E04300A6E09320A9E01BEFE
:101EF0000A8E29EF0FF009360A3602E30184017ECB
:101F000006E101800A6A096A086A076A12000A285B
:101F100003E0D88009321200D890093202E1018230
:101F20001200018612000E360F3602E3018C017E8C
:101F300006E101880F6A0E6A0D6A0C6A12000F280A
:101F400003E0D8800E321200D8900E32EAE1018A06
:021F500012007D
:0E1F5200A80EF66E1A0EF76E000EF86E0E0157
:101F60000900F550056F0900F550066F03E105679C
:101F700001D03DD00900F550006F0900F550016F08
:101F80000900F550026F09000900F550E96E0900DB
:101F9000F550EA6E090009000900F550036F0900C9
:101FA000F550046F09000900F6CF07FEF7CF08FED1
:101FB000F8CF09FE00CEF6FF01CEF7FF02CEF8FF04
:101FC0000E01035302E1045307E00900F550EE6EE1
:101FD0000307F8E20407F9D707CEF6FF08CEF7FFAC
:101FE00009CEF8FF0E010507000E065BBFD71200F1
:101FF000D9CFE6FFDACFE6FFFA0EE3CFD9FFFB0E2B
:10200000E3CFDAFFFC0EE3CFE9FFFD0EE3CFEAFFFB
:10201000E9CFF3FFEACFF4FFF80EE35003E1F90E46
:10202000E35008E0F80EE30602E2F90EE306DECF25
:10203000EEFFF2D7FF0EE3CFDAFFE552FF0EE3CF5C
:10204000D9FFE5521200FE0EE3CFE9FFFF0EE3CF0A
:10205000EAFFE9CFF3FFEACFF4FFFB0EE35003E121
:10206000FC0EE35009E0FB0EE30602E2FC0EE30681
:0A207000FD0EE350EE6EF1D71200F2
:06207A00D9CFE6FFDACF2A
:10208000E6FFE1CFD9FFE2CFDAFFBA6AA66AFD0E1A
:10209000DBB0BA88DBA202D0BA8CA68CDBB4BA8ED5
:1020A000DBA602D0A68801D0A68ADBA802D0BA841B
:1020B00001D0BA94DBBAA686DBAC02D0A38A01D0E9
:1020C000A39ADBAE02D0A38801D0A398FB0EDB500D
:1020D0007B6EFC0EDBCF15F015C014F0156A1450A2
:1020E0007C6EBA8AA68EE552E5CFDAFFE7CFD9FF3C
:0220F0001200DC
:0E20F20006500B02F3CF02F0F4CF03F00C0205
:10210000F3500326000EF420046E06500D02F35027
:102110000426000EF420056E06500E02F35005262C
:1021200007500B02F3500326F4500422000E052240
:1021300007500C02F3500426F450052207500D02FC
:10214000F350052608500B02F3500426F4500522E4
:1021500008500C02F350052609500B02F3500526D7
:0221600012006B
:0E216200D9CFE6FFDACFE6FFE1CFD9FFE2CF1B
:10217000DAFFFC0EDB50F30BAA6EFD0EDB507F0B7B
:10218000E824CD6ECF6ACE6A9E90FD0EDBAE02D003
:102190009D8001D09D909E94FC0EDBA402D09D8476
:1021A00001D09D94AABEAA86CD80E552E5CFDAFF84
:0621B000E7CFD9FF120089
:0A21B600056A046A036A026A200E3B
:1021C000E76ED890063607360836093602360336EB
:1021D000043605360B50025C0C5003580D50045861
:1021E0000E50055809E30B50025E0C50035A0D5077
:0E21F000045A0E50055A062AE72EE4D71200B4
:0221FE00D9CF37
:10220000E6FFDACFE6FFE1CFD9FFE2CFDAFFE65211
:10221000E652FC0EDBCFDEFFDBCFDDFF010EDB5035
:10222000CF6EDF50CE6EE552E552E552E5CFDAFFD4
:06223000E7CFD9FF120008
:0A223600D9CFE6FFDACFE6FFE1CFD3
:10224000D9FFE2CFDAFFE652E652FC0EDBCFDEFF2B
:10225000DBCFDDFF010EDB50D76EDF50D66EE552CF
:0E226000E552E552E5CFDAFFE7CFD9FF1200D5
:02226E00D9CFC6
:10227000E6FFDACFE6FFE1CFD9FFE2CFDAFFFD0ECE
:10228000DB507F0BD56ED76AD66AF294FD0EDBAEBB
:1022900002D0F28A01D0F29AD58EE552E5CFDAFF6C
:0622A000E7CFD9FF120098
:0A22A600D9CFE6FFDACFE6FFE1CF63
:1022B000D9FFE2CFDAFFBAAC04D0BA900E0112B364
:1022C000BA80FD0EDB50796EE552E5CFDAFFE7CF3D
:0422D000D9FF120020
:0C22D400D9CFE6FFDACFE6FFE1CFD9FF5B
:1022E000E2CFDAFFACAC04D0AC900E0113B3AC80FB
:1022F000FD0EDB50AD6EE552E5CFDAFFE7CFD9FF3B
:022300001200C9
:0E230200410EF36E00EE00F00E0E01D8120038
:10231000EA6002D0EE6AFCD7F350E9601200EE6A80
:02232000FCD7E8
:0E2322001DEE00F02DEE00F0F86A019CA9EC13
:0E2330000FF003EC00F087EC09F0FBD7120071
:02233E00FF0E90
:10234000E350246E1B0E00D001D0200EE76EE72E66
:0A235000FED7242EFAD700D01200A9
:06235A000100000000007C
:02236000140067
:020000040030CA
:010000001DE2
:0100010008F6
:010002007984
:010003007C80
:010005008971
:00000001FF
